{
    "contractName": "HashTimeLock",
    "abi": [
        {
            "constant": true,
            "inputs": [
                {
                    "name": "",
                    "type": "bytes32"
                }
            ],
            "name": "contracts",
            "outputs": [
                {
                    "name": "inputAmount",
                    "type": "uint256"
                },
                {
                    "name": "outputAmount",
                    "type": "uint256"
                },
                {
                    "name": "expiration",
                    "type": "uint256"
                },
                {
                    "name": "hashLock",
                    "type": "bytes32"
                },
                {
                    "name": "status",
                    "type": "uint8"
                },
                {
                    "name": "sender",
                    "type": "address"
                },
                {
                    "name": "receiver",
                    "type": "address"
                },
                {
                    "name": "outputNetwork",
                    "type": "string"
                },
                {
                    "name": "outputAddress",
                    "type": "string"
                }
            ],
            "payable": false,
            "stateMutability": "view",
            "type": "function"
        },
        {
            "anonymous": false,
            "inputs": [
                {
                    "indexed": true,
                    "name": "id",
                    "type": "bytes32"
                },
                {
                    "indexed": false,
                    "name": "secret",
                    "type": "bytes32"
                },
                {
                    "indexed": false,
                    "name": "hashLock",
                    "type": "bytes32"
                },
                {
                    "indexed": true,
                    "name": "sender",
                    "type": "address"
                },
                {
                    "indexed": true,
                    "name": "receiver",
                    "type": "address"
                }
            ],
            "name": "Withdraw",
            "type": "event"
        },
        {
            "anonymous": false,
            "inputs": [
                {
                    "indexed": true,
                    "name": "id",
                    "type": "bytes32"
                },
                {
                    "indexed": false,
                    "name": "hashLock",
                    "type": "bytes32"
                },
                {
                    "indexed": true,
                    "name": "sender",
                    "type": "address"
                },
                {
                    "indexed": true,
                    "name": "receiver",
                    "type": "address"
                }
            ],
            "name": "Refund",
            "type": "event"
        },
        {
            "anonymous": false,
            "inputs": [
                {
                    "indexed": false,
                    "name": "inputAmount",
                    "type": "uint256"
                },
                {
                    "indexed": false,
                    "name": "outputAmount",
                    "type": "uint256"
                },
                {
                    "indexed": false,
                    "name": "expiration",
                    "type": "uint256"
                },
                {
                    "indexed": true,
                    "name": "id",
                    "type": "bytes32"
                },
                {
                    "indexed": false,
                    "name": "hashLock",
                    "type": "bytes32"
                },
                {
                    "indexed": true,
                    "name": "sender",
                    "type": "address"
                },
                {
                    "indexed": true,
                    "name": "receiver",
                    "type": "address"
                },
                {
                    "indexed": false,
                    "name": "outputNetwork",
                    "type": "string"
                },
                {
                    "indexed": false,
                    "name": "outputAddress",
                    "type": "string"
                }
            ],
            "name": "NewContract",
            "type": "event"
        },
        {
            "constant": false,
            "inputs": [
                {
                    "name": "outputAmount",
                    "type": "uint256"
                },
                {
                    "name": "expiration",
                    "type": "uint256"
                },
                {
                    "name": "hashLock",
                    "type": "bytes32"
                },
                {
                    "name": "receiver",
                    "type": "address"
                },
                {
                    "name": "outputNetwork",
                    "type": "string"
                },
                {
                    "name": "outputAddress",
                    "type": "string"
                }
            ],
            "name": "newContract",
            "outputs": [],
            "payable": true,
            "stateMutability": "payable",
            "type": "function"
        },
        {
            "constant": false,
            "inputs": [
                {
                    "name": "id",
                    "type": "bytes32"
                },
                {
                    "name": "secret",
                    "type": "bytes32"
                }
            ],
            "name": "withdraw",
            "outputs": [
                {
                    "name": "",
                    "type": "bool"
                }
            ],
            "payable": false,
            "stateMutability": "nonpayable",
            "type": "function"
        },
        {
            "constant": false,
            "inputs": [
                {
                    "name": "id",
                    "type": "bytes32"
                }
            ],
            "name": "refund",
            "outputs": [
                {
                    "name": "",
                    "type": "bool"
                }
            ],
            "payable": false,
            "stateMutability": "nonpayable",
            "type": "function"
        },
        {
            "constant": true,
            "inputs": [
                {
                    "name": "id",
                    "type": "bytes32"
                }
            ],
            "name": "getContract",
            "outputs": [
                {
                    "components": [
                        {
                            "name": "inputAmount",
                            "type": "uint256"
                        },
                        {
                            "name": "outputAmount",
                            "type": "uint256"
                        },
                        {
                            "name": "expiration",
                            "type": "uint256"
                        },
                        {
                            "name": "hashLock",
                            "type": "bytes32"
                        },
                        {
                            "name": "status",
                            "type": "uint8"
                        },
                        {
                            "name": "sender",
                            "type": "address"
                        },
                        {
                            "name": "receiver",
                            "type": "address"
                        },
                        {
                            "name": "outputNetwork",
                            "type": "string"
                        },
                        {
                            "name": "outputAddress",
                            "type": "string"
                        }
                    ],
                    "name": "",
                    "type": "tuple"
                }
            ],
            "payable": false,
            "stateMutability": "view",
            "type": "function"
        },
        {
            "constant": true,
            "inputs": [
                {
                    "name": "id",
                    "type": "bytes32"
                }
            ],
            "name": "contractExists",
            "outputs": [
                {
                    "name": "",
                    "type": "bool"
                }
            ],
            "payable": false,
            "stateMutability": "view",
            "type": "function"
        },
        {
            "constant": true,
            "inputs": [
                {
                    "name": "ids",
                    "type": "bytes32[]"
                }
            ],
            "name": "getStatus",
            "outputs": [
                {
                    "name": "",
                    "type": "uint8[]"
                }
            ],
            "payable": false,
            "stateMutability": "view",
            "type": "function"
        },
        {
            "constant": true,
            "inputs": [
                {
                    "name": "id",
                    "type": "bytes32"
                }
            ],
            "name": "getStatus",
            "outputs": [
                {
                    "name": "result",
                    "type": "uint8"
                }
            ],
            "payable": false,
            "stateMutability": "view",
            "type": "function"
        }
    ],
    "bytecode": "0x608060405234801561001057600080fd5b50d3801561001d57600080fd5b50d2801561002a57600080fd5b5061264e8061003a6000396000f3fe608060405260043610610098576000357c0100000000000000000000000000000000000000000000000000000000900480637249fbb61161006b5780637249fbb6146101f9578063d363209514610250578063e16c7d981461026c578063ec56a373146102c357610098565b80632f21a6631461009d5780635de28ae0146100f4578063636151491461014b5780636c8244b8146101a2575b600080fd5b3480156100a957600080fd5b50d380156100b657600080fd5b50d280156100c357600080fd5b506100de60048036036100d99190810190611ad9565b610322565b6040516100eb9190612136565b60405180910390f35b34801561010057600080fd5b50d3801561010d57600080fd5b50d2801561011a57600080fd5b5061013560048036036101309190810190611b1a565b6103c2565b6040516101429190612383565b60405180910390f35b34801561015757600080fd5b50d3801561016457600080fd5b50d2801561017157600080fd5b5061018c60048036036101879190810190611b6c565b610690565b6040516101999190612158565b60405180910390f35b3480156101ae57600080fd5b50d380156101bb57600080fd5b50d280156101c857600080fd5b506101e360048036036101de9190810190611b1a565b610bcc565b6040516101f09190612158565b60405180910390f35b34801561020557600080fd5b50d3801561021257600080fd5b50d2801561021f57600080fd5b5061023a60048036036102359190810190611b1a565b610c11565b6040516102479190612158565b60405180910390f35b61026a60048036036102659190810190611ba8565b611107565b005b34801561027857600080fd5b50d3801561028557600080fd5b50d2801561029257600080fd5b506102ad60048036036102a89190810190611b1a565b611438565b6040516102ba9190612257565b60405180910390f35b3480156102cf57600080fd5b50d380156102dc57600080fd5b50d280156102e957600080fd5b5061030460048036036102ff9190810190611b1a565b6116b7565b60405161031999989796959493929190612279565b60405180910390f35b60608082516040519080825280602002602001820160405280156103555781602001602082028038833980820191505090505b50905060008090505b83518110156103b857610387848281518110151561037857fe5b906020019060200201516103c2565b828281518110151561039557fe5b9060200190602002019060ff16908160ff1681525050808060010191505061035e565b5080915050919050565b60006103cc611882565b6000808481526020019081526020016000206101206040519081016040529081600082015481526020016001820154815260200160028201548152602001600382015481526020016004820160009054906101000a900460ff16600481111561043157fe5b600481111561043c57fe5b81526020016004820160019054906101000a900473ffffffffffffffffffffffffffffffffffffffff1673ffffffffffffffffffffffffffffffffffffffff1673ffffffffffffffffffffffffffffffffffffffff1681526020016005820160009054906101000a900473ffffffffffffffffffffffffffffffffffffffff1673ffffffffffffffffffffffffffffffffffffffff1673ffffffffffffffffffffffffffffffffffffffff168152602001600682018054600181600116156101000203166002900480601f0160208091040260200160405190810160405280929190818152602001828054600181600116156101000203166002900480156105855780601f1061055a57610100808354040283529160200191610585565b820191906000526020600020905b81548152906001019060200180831161056857829003601f168201915b50505050508152602001600782018054600181600116156101000203166002900480601f0160208091040260200160405190810160405280929190818152602001828054600181600116156101000203166002900480156106275780601f106105fc57610100808354040283529160200191610627565b820191906000526020600020905b81548152906001019060200180831161060a57829003601f168201915b50505050508152505090506001600481111561063f57fe5b8160800151600481111561064f57fe5b14801561065f5750428160400151105b156106775760048081111561067057fe5b915061068a565b8060800151600481111561068757fe5b91505b50919050565b6000828261069c611882565b6000808481526020019081526020016000206101206040519081016040529081600082015481526020016001820154815260200160028201548152602001600382015481526020016004820160009054906101000a900460ff16600481111561070157fe5b600481111561070c57fe5b81526020016004820160019054906101000a900473ffffffffffffffffffffffffffffffffffffffff1673ffffffffffffffffffffffffffffffffffffffff1673ffffffffffffffffffffffffffffffffffffffff1681526020016005820160009054906101000a900473ffffffffffffffffffffffffffffffffffffffff1673ffffffffffffffffffffffffffffffffffffffff1673ffffffffffffffffffffffffffffffffffffffff168152602001600682018054600181600116156101000203166002900480601f0160208091040260200160405190810160405280929190818152602001828054600181600116156101000203166002900480156108555780601f1061082a57610100808354040283529160200191610855565b820191906000526020600020905b81548152906001019060200180831161083857829003601f168201915b50505050508152602001600782018054600181600116156101000203166002900480601f0160208091040260200160405190810160405280929190818152602001828054600181600116156101000203166002900480156108f75780601f106108cc576101008083540402835291602001916108f7565b820191906000526020600020905b8154815290600101906020018083116108da57829003601f168201915b50505050508152505090506001600481111561090f57fe5b8160800151600481111561091f57fe5b141515610961576040517f08c379a0000000000000000000000000000000000000000000000000000000008152600401610958906121d7565b60405180910390fd5b4281604001511115156109a9576040517f08c379a00000000000000000000000000000000000000000000000000000000081526004016109a0906121f7565b60405180910390fd5b6002826040516020016109bc9190612104565b6040516020818303038152906040526040516109d8919061211f565b602060405180830381855afa1580156109f5573d6000803e3d6000fd5b5050506040513d601f19601f82011682018060405250610a189190810190611b43565b8160600151141515610a5f576040517f08c379a0000000000000000000000000000000000000000000000000000000008152600401610a56906121b7565b60405180910390fd5b6000806000888152602001908152602001600020905060038160040160006101000a81548160ff02191690836004811115610a9657fe5b02179055508060050160009054906101000a900473ffffffffffffffffffffffffffffffffffffffff1673ffffffffffffffffffffffffffffffffffffffff166108fc82600001549081150290604051600060405180830381858888f19350505050158015610b09573d6000803e3d6000fd5b508060050160009054906101000a900473ffffffffffffffffffffffffffffffffffffffff1673ffffffffffffffffffffffffffffffffffffffff168160040160019054906101000a900473ffffffffffffffffffffffffffffffffffffffff1673ffffffffffffffffffffffffffffffffffffffff16887f2d3a5ed13d0553389b4078e01264416362e34d23520fda797fbc17f3905ed131898560030154604051610bb692919061218e565b60405180910390a4600194505050505092915050565b6000806004811115610bda57fe5b60008084815260200190815260200160002060040160009054906101000a900460ff166004811115610c0857fe5b14159050919050565b600081610c1c611882565b6000808381526020019081526020016000206101206040519081016040529081600082015481526020016001820154815260200160028201548152602001600382015481526020016004820160009054906101000a900460ff166004811115610c8157fe5b6004811115610c8c57fe5b81526020016004820160019054906101000a900473ffffffffffffffffffffffffffffffffffffffff1673ffffffffffffffffffffffffffffffffffffffff1673ffffffffffffffffffffffffffffffffffffffff1681526020016005820160009054906101000a900473ffffffffffffffffffffffffffffffffffffffff1673ffffffffffffffffffffffffffffffffffffffff1673ffffffffffffffffffffffffffffffffffffffff168152602001600682018054600181600116156101000203166002900480601f016020809104026020016040519081016040528092919081815260200182805460018160011615610100020316600290048015610dd55780601f10610daa57610100808354040283529160200191610dd5565b820191906000526020600020905b815481529060010190602001808311610db857829003601f168201915b50505050508152602001600782018054600181600116156101000203166002900480601f016020809104026020016040519081016040528092919081815260200182805460018160011615610100020316600290048015610e775780601f10610e4c57610100808354040283529160200191610e77565b820191906000526020600020905b815481529060010190602001808311610e5a57829003601f168201915b505050505081525050905060016004811115610e8f57fe5b81608001516004811115610e9f57fe5b141515610ee1576040517f08c379a0000000000000000000000000000000000000000000000000000000008152600401610ed8906121d7565b60405180910390fd5b42816040015111151515610f2a576040517f08c379a0000000000000000000000000000000000000000000000000000000008152600401610f21906121f7565b60405180910390fd5b3373ffffffffffffffffffffffffffffffffffffffff168160a0015173ffffffffffffffffffffffffffffffffffffffff16141515610f9e576040517f08c379a0000000000000000000000000000000000000000000000000000000008152600401610f9590612217565b60405180910390fd5b6000806000868152602001908152602001600020905060028160040160006101000a81548160ff02191690836004811115610fd557fe5b02179055508060040160019054906101000a900473ffffffffffffffffffffffffffffffffffffffff1673ffffffffffffffffffffffffffffffffffffffff166108fc82600001549081150290604051600060405180830381858888f19350505050158015611048573d6000803e3d6000fd5b508060050160009054906101000a900473ffffffffffffffffffffffffffffffffffffffff1673ffffffffffffffffffffffffffffffffffffffff168160040160019054906101000a900473ffffffffffffffffffffffffffffffffffffffff1673ffffffffffffffffffffffffffffffffffffffff16867f6fa50d56c31f3efe0cb6ff06232bffce8fe8c4155e3cbb6f2d79dd12631c252284600301546040516110f39190612173565b60405180910390a460019350505050919050565b600033905060003490504287111515611155576040517f08c379a000000000000000000000000000000000000000000000000000000000815260040161114c906121f7565b60405180910390fd5b60008111151561119a576040517f08c379a000000000000000000000000000000000000000000000000000000000815260040161119190612237565b60405180910390fd5b600060028387848a8c6040516020016111b79594939291906120a5565b6040516020818303038152906040526040516111d3919061211f565b602060405180830381855afa1580156111f0573d6000803e3d6000fd5b5050506040513d601f19601f820116820180604052506112139190810190611b43565b9050610120604051908101604052808381526020018a81526020018981526020018881526020016001600481111561124757fe5b81526020018473ffffffffffffffffffffffffffffffffffffffff1681526020018773ffffffffffffffffffffffffffffffffffffffff168152602001868152602001858152506000808381526020019081526020016000206000820151816000015560208201518160010155604082015181600201556060820151816003015560808201518160040160006101000a81548160ff021916908360048111156112ec57fe5b021790555060a08201518160040160016101000a81548173ffffffffffffffffffffffffffffffffffffffff021916908373ffffffffffffffffffffffffffffffffffffffff16021790555060c08201518160050160006101000a81548173ffffffffffffffffffffffffffffffffffffffff021916908373ffffffffffffffffffffffffffffffffffffffff16021790555060e082015181600601908051906020019061139b929190611909565b506101008201518160070190805190602001906113b9929190611909565b509050508573ffffffffffffffffffffffffffffffffffffffff168373ffffffffffffffffffffffffffffffffffffffff16827f767d0ffbc3d16cc51fc05770a22976e4b0fda9198e37878b76979429b2d5d88c858d8d8d8c8c60405161142596959493929190612314565b60405180910390a4505050505050505050565b611440611882565b611448611882565b6000808481526020019081526020016000206101206040519081016040529081600082015481526020016001820154815260200160028201548152602001600382015481526020016004820160009054906101000a900460ff1660048111156114ad57fe5b60048111156114b857fe5b81526020016004820160019054906101000a900473ffffffffffffffffffffffffffffffffffffffff1673ffffffffffffffffffffffffffffffffffffffff1673ffffffffffffffffffffffffffffffffffffffff1681526020016005820160009054906101000a900473ffffffffffffffffffffffffffffffffffffffff1673ffffffffffffffffffffffffffffffffffffffff1673ffffffffffffffffffffffffffffffffffffffff168152602001600682018054600181600116156101000203166002900480601f0160208091040260200160405190810160405280929190818152602001828054600181600116156101000203166002900480156116015780601f106115d657610100808354040283529160200191611601565b820191906000526020600020905b8154815290600101906020018083116115e457829003601f168201915b50505050508152602001600782018054600181600116156101000203166002900480601f0160208091040260200160405190810160405280929190818152602001828054600181600116156101000203166002900480156116a35780601f10611678576101008083540402835291602001916116a3565b820191906000526020600020905b81548152906001019060200180831161168657829003601f168201915b505050505081525050905080915050919050565b60006020528060005260406000206000915090508060000154908060010154908060020154908060030154908060040160009054906101000a900460ff16908060040160019054906101000a900473ffffffffffffffffffffffffffffffffffffffff16908060050160009054906101000a900473ffffffffffffffffffffffffffffffffffffffff1690806006018054600181600116156101000203166002900480601f0160208091040260200160405190810160405280929190818152602001828054600181600116156101000203166002900480156117da5780601f106117af576101008083540402835291602001916117da565b820191906000526020600020905b8154815290600101906020018083116117bd57829003601f168201915b505050505090806007018054600181600116156101000203166002900480601f0160208091040260200160405190810160405280929190818152602001828054600181600116156101000203166002900480156118785780601f1061184d57610100808354040283529160200191611878565b820191906000526020600020905b81548152906001019060200180831161185b57829003601f168201915b5050505050905089565b6101206040519081016040528060008152602001600081526020016000815260200160008019168152602001600060048111156118bb57fe5b8152602001600073ffffffffffffffffffffffffffffffffffffffff168152602001600073ffffffffffffffffffffffffffffffffffffffff16815260200160608152602001606081525090565b828054600181600116156101000203166002900490600052602060002090601f016020900481019282601f1061194a57805160ff1916838001178555611978565b82800160010185558215611978579182015b8281111561197757825182559160200191906001019061195c565b5b5090506119859190611989565b5090565b6119ab91905b808211156119a757600081600090555060010161198f565b5090565b90565b60006119ba8235612518565b905092915050565b600082601f83011215156119d557600080fd5b81356119e86119e3826123cb565b61239e565b91508181835260208401935060208101905083856020840282011115611a0d57600080fd5b60005b83811015611a3d5781611a238882611a47565b845260208401935060208301925050600181019050611a10565b5050505092915050565b6000611a53823561252a565b905092915050565b6000611a67825161252a565b905092915050565b600082601f8301121515611a8257600080fd5b8135611a95611a90826123f3565b61239e565b91508082526020830160208301858383011115611ab157600080fd5b611abc838284612570565b50505092915050565b6000611ad18235612554565b905092915050565b600060208284031215611aeb57600080fd5b600082013567ffffffffffffffff811115611b0557600080fd5b611b11848285016119c2565b91505092915050565b600060208284031215611b2c57600080fd5b6000611b3a84828501611a47565b91505092915050565b600060208284031215611b5557600080fd5b6000611b6384828501611a5b565b91505092915050565b60008060408385031215611b7f57600080fd5b6000611b8d85828601611a47565b9250506020611b9e85828601611a47565b9150509250929050565b60008060008060008060c08789031215611bc157600080fd5b6000611bcf89828a01611ac5565b9650506020611be089828a01611ac5565b9550506040611bf189828a01611a47565b9450506060611c0289828a016119ae565b935050608087013567ffffffffffffffff811115611c1f57600080fd5b611c2b89828a01611a6f565b92505060a087013567ffffffffffffffff811115611c4857600080fd5b611c5489828a01611a6f565b9150509295509295509295565b6000611c6d8383612087565b60208301905092915050565b611c82816124a3565b82525050565b611c91816124a3565b82525050565b611ca8611ca3826124a3565b6125b2565b82525050565b6000611cb98261242c565b611cc38185612465565b9350611cce8361241f565b60005b82811015611cfc57611ce4868351611c61565b9550611cef82612458565b9150600181019050611cd1565b50849250505092915050565b611d11816124b5565b82525050565b611d20816124c1565b82525050565b611d2f816124c1565b82525050565b611d46611d41826124c1565b6125c4565b82525050565b6000611d5782612437565b611d618185612476565b9350611d7181856020860161257f565b80840191505092915050565b611d868161255e565b82525050565b611d958161255e565b82525050565b6000611da68261244d565b611db08185612492565b9350611dc081856020860161257f565b611dc9816125ea565b840191505092915050565b6000611ddf82612442565b611de98185612481565b9350611df981856020860161257f565b611e02816125ea565b840191505092915050565b6000611e1882612442565b611e228185612492565b9350611e3281856020860161257f565b611e3b816125ea565b840191505092915050565b6000611e53600e83612492565b91507f494e56414c49445f5345435245540000000000000000000000000000000000006000830152602082019050919050565b6000611e93600f83612492565b91507f535741505f4e4f545f41435449564500000000000000000000000000000000006000830152602082019050919050565b6000611ed3600c83612492565b91507f494e56414c49445f54494d4500000000000000000000000000000000000000006000830152602082019050919050565b6000611f13600e83612492565b91507f494e56414c49445f53454e4445520000000000000000000000000000000000006000830152602082019050919050565b6000611f53600e83612492565b91507f494e56414c49445f414d4f554e540000000000000000000000000000000000006000830152602082019050919050565b600061012083016000830151611f9f6000860182612052565b506020830151611fb26020860182612052565b506040830151611fc56040860182612052565b506060830151611fd86060860182611d17565b506080830151611feb6080860182611d7d565b5060a0830151611ffe60a0860182611c79565b5060c083015161201160c0860182611c79565b5060e083015184820360e08601526120298282611dd4565b9150506101008301518482036101008601526120458282611dd4565b9150508091505092915050565b61205b81612501565b82525050565b61206a81612501565b82525050565b61208161207c82612501565b6125e0565b82525050565b6120908161250b565b82525050565b61209f8161250b565b82525050565b60006120b18288611c97565b6014820191506120c18287611c97565b6014820191506120d18286612070565b6020820191506120e18285611d35565b6020820191506120f18284612070565b6020820191508190509695505050505050565b60006121108284611d35565b60208201915081905092915050565b600061212b8284611d4c565b915081905092915050565b600060208201905081810360008301526121508184611cae565b905092915050565b600060208201905061216d6000830184611d08565b92915050565b60006020820190506121886000830184611d26565b92915050565b60006040820190506121a36000830185611d26565b6121b06020830184611d26565b9392505050565b600060208201905081810360008301526121d081611e46565b9050919050565b600060208201905081810360008301526121f081611e86565b9050919050565b6000602082019050818103600083015261221081611ec6565b9050919050565b6000602082019050818103600083015261223081611f06565b9050919050565b6000602082019050818103600083015261225081611f46565b9050919050565b600060208201905081810360008301526122718184611f86565b905092915050565b60006101208201905061228f600083018c612061565b61229c602083018b612061565b6122a9604083018a612061565b6122b66060830189611d26565b6122c36080830188611d8c565b6122d060a0830187611c88565b6122dd60c0830186611c88565b81810360e08301526122ef8185611e0d565b90508181036101008301526123048184611e0d565b90509a9950505050505050505050565b600060c0820190506123296000830189612061565b6123366020830188612061565b6123436040830187612061565b6123506060830186611d26565b81810360808301526123628185611d9b565b905081810360a08301526123768184611d9b565b9050979650505050505050565b60006020820190506123986000830184612096565b92915050565b6000604051905081810181811067ffffffffffffffff821117156123c157600080fd5b8060405250919050565b600067ffffffffffffffff8211156123e257600080fd5b602082029050602081019050919050565b600067ffffffffffffffff82111561240a57600080fd5b601f19601f8301169050602081019050919050565b6000602082019050919050565b600081519050919050565b600081519050919050565b600081519050919050565b600081519050919050565b6000602082019050919050565b600082825260208201905092915050565b600081905092915050565b600082825260208201905092915050565b600082825260208201905092915050565b60006124ae826124e1565b9050919050565b60008115159050919050565b6000819050919050565b60006005821015156124d957fe5b819050919050565b600073ffffffffffffffffffffffffffffffffffffffff82169050919050565b6000819050919050565b600060ff82169050919050565b600061252382612534565b9050919050565b6000819050919050565b600073ffffffffffffffffffffffffffffffffffffffff82169050919050565b6000819050919050565b6000612569826124cb565b9050919050565b82818337600083830152505050565b60005b8381101561259d578082015181840152602081019050612582565b838111156125ac576000848401525b50505050565b60006125bd826125ce565b9050919050565b6000819050919050565b60006125d9826125fb565b9050919050565b6000819050919050565b6000601f19601f8301169050919050565b60006c010000000000000000000000008202905091905056fea265627a7a723058207f7b76324ff743115e37f3c47322671b16ed1b90f1013693b4e1e72af469554a6c6578706572696d656e74616cf50037",
    "source": "pragma solidity >=0.5.0 <0.6.0;\npragma experimental ABIEncoderV2;\n\ncontract Htlc {\n  mapping(bytes32 => LockContract) public contracts;\n\n  enum SwapStatus { INVALID, ACTIVE, REFUNDED, WITHDRAWN, EXPIRED }\n\n  struct LockContract {\n    uint256 inputAmount;\n    uint256 outputAmount;\n    uint256 expiration;\n    bytes32 hashLock;\n    SwapStatus status;\n    address payable sender;\n    address payable receiver;\n    string outputNetwork;\n    string outputAddress;\n  }\n\n  event Withdraw(\n    bytes32 indexed id,\n    bytes32 secret,\n    bytes32 hashLock,\n    address indexed sender,\n    address indexed receiver\n  );\n\n  event Refund(\n    bytes32 indexed id,\n    bytes32 hashLock,\n    address indexed sender,\n    address indexed receiver\n  );\n\n  event NewContract(\n    uint256 inputAmount,\n    uint256 outputAmount,\n    uint256 expiration,\n    bytes32 indexed id,\n    bytes32 hashLock,\n    address indexed sender,\n    address indexed receiver,\n    string outputNetwork,\n    string outputAddress\n  );\n\n  modifier withdrawable(bytes32 id, bytes32 secret) {\n    LockContract memory tempContract = contracts[id];\n    require(tempContract.status == SwapStatus.ACTIVE, 'SWAP_NOT_ACTIVE');\n    require(tempContract.expiration > block.timestamp, 'INVALID_TIME');\n    require(\n      tempContract.hashLock == sha256(abi.encodePacked(secret)),\n      'INVALID_SECRET'\n    );\n    _;\n  }\n\n  modifier refundable(bytes32 id) {\n    LockContract memory tempContract = contracts[id];\n    require(tempContract.status == SwapStatus.ACTIVE, 'SWAP_NOT_ACTIVE');\n    require(tempContract.expiration <= block.timestamp, 'INVALID_TIME');\n    require(tempContract.sender == msg.sender, 'INVALID_SENDER');\n    _;\n  }\n\n  function newContract(\n    uint256 outputAmount,\n    uint256 expiration,\n    bytes32 hashLock,\n    address payable receiver,\n    string memory outputNetwork,\n    string memory outputAddress\n  ) public payable {\n    address payable sender = msg.sender;\n    uint256 inputAmount = msg.value;\n\n    require(expiration > block.timestamp, 'INVALID_TIME');\n\n    require(inputAmount > 0, 'INVALID_AMOUNT');\n\n    bytes32 id = sha256(\n      abi.encodePacked(sender, receiver, inputAmount, hashLock, expiration)\n    );\n\n    contracts[id] = LockContract(\n      inputAmount,\n      outputAmount,\n      expiration,\n      hashLock,\n      SwapStatus.ACTIVE,\n      sender,\n      receiver,\n      outputNetwork,\n      outputAddress\n    );\n\n    emit NewContract(\n      inputAmount,\n      outputAmount,\n      expiration,\n      id,\n      hashLock,\n      sender,\n      receiver,\n      outputNetwork,\n      outputAddress\n    );\n  }\n\n  function withdraw(bytes32 id, bytes32 secret)\n    public\n    withdrawable(id, secret)\n    returns (bool)\n  {\n    LockContract storage c = contracts[id];\n    c.status = SwapStatus.WITHDRAWN;\n    c.receiver.transfer(c.inputAmount);\n    emit Withdraw(id, secret, c.hashLock, c.sender, c.receiver);\n    return true;\n  }\n\n  function refund(bytes32 id) external refundable(id) returns (bool) {\n    LockContract storage c = contracts[id];\n    c.status = SwapStatus.REFUNDED;\n    c.sender.transfer(c.inputAmount);\n    emit Refund(id, c.hashLock, c.sender, c.receiver);\n    return true;\n  }\n\n  function getContract(bytes32 id) public view returns (LockContract memory) {\n    LockContract memory c = contracts[id];\n    return c;\n  }\n\n  function contractExists(bytes32 id) public view returns (bool) {\n    return contracts[id].status != SwapStatus.INVALID;\n  }\n\n  function getStatus(bytes32[] memory ids)\n    public\n    view\n    returns (uint8[] memory)\n  {\n    uint8[] memory result = new uint8[](ids.length);\n\n    for (uint256 index = 0; index < ids.length; index++) {\n      result[index] = getStatus(ids[index]);\n    }\n\n    return result;\n  }\n\n  function getStatus(bytes32 id) public view returns (uint8 result) {\n    LockContract memory tempContract = contracts[id];\n\n    if (\n      tempContract.status == SwapStatus.ACTIVE &&\n      tempContract.expiration < block.timestamp\n    ) {\n      result = uint8(SwapStatus.EXPIRED);\n    } else {\n      result = uint8(tempContract.status);\n    }\n  }\n}",
    "sourcePath": "/Users/tima_t/Documents/tron-test/contracts/Htlc.sol",
    "compiler": {
        "name": "solc",
        "version": "0.5.4+commit.7b0de266.mod.Emscripten.clang"
    },
    "schemaVersion": "2.0.1",
    "updatedAt": "2019-11-20T12:23:30.862Z"
}